:020000040800F2
:10000000B007002051020008AB17000835160008A1
:10001000A91700086B040008991B000800000000E5
:10002000000000000000000000000000AF17000802
:100030001D05000800000000AD170008B1170008FA
:100040006B0200086B0200086B0200086B020008DC
:100050006B0200086B0200086B0200086B020008CC
:100060006B0200086B0200086B0200086B020008BC
:100070006B0200086B0200086B0200086B020008AC
:100080006B0200086B0200086B0200086B0200089C
:100090006B0200086B0200086B0200086B0200088C
:1000A0006B0200086B0200086B0200086B0200087C
:1000B0006B0200086B0200086B0200086B0200086C
:1000C0006B0200086B0200086B0200086B0200085C
:1000D0006B0200088D1B00086B0200086B02000811
:1000E0006B0200086B0200086B0200086B0200083C
:1000F0006B0200086B0200086B0200086B0200082C
:100100006B0200086B0200086B0200086B0200081B
:100110006B0200086B0200086B0200086B0200080B
:100120006B0200086B0200086D0400086B020008F7
:100130006B0200086B0200086B0200086B020008EB
:100140006B0200086B0200086B0200086B020008DB
:100150006B0200086B0200086B0200086B020008CB
:100160006B0200086B0200086B0200086B020008BB
:100170006B0200086B0200086B0200080000000020
:100180006B0200086B0200086B0200086B0200089B
:100190006B0200086B0200086B0200086B0200088B
:1001A00000000000000000006B02000800F002F8F0
:1001B00000F03EF80AA090E8000C82448344AAF1C3
:1001C0000107DA4501D100F033F8AFF2090EBAE8C1
:1001D0000F0013F0010F18BFFB1A43F0010318477B
:1001E000AC240000CC240000103A24BF78C878C1A9
:1001F000FAD8520724BF30C830C144BF04680C602D
:10020000704700000023002400250026103A28BF74
:1002100078C1FBD8520728BF30C148BF0B60704778
:100220001FB502F018FA00F0D5F81FBD10B510BDCB
:1002300000F0E2F81146FFF7F3FF01F019FE00F0BD
:1002400000F903B4FFF7F2FF03BC00F007F9000068
:100250000948804709480047FEE7FEE7FEE7FEE75A
:10026000FEE7FEE7FEE7FEE7FEE7FEE70448054996
:10027000054A064B70470000B5170008AD0100089D
:10028000B0010020B0070020B0030020B003002020
:1002900053EA020C00F069802DE9F04B4FF00006A4
:1002A000002B1FBFB3FA83F503FA05F424FA05F611
:1002B0005E4012BF1643B2FA82F502FA05F4C5F1A8
:1002C00020051EBF22FA05FC44EA0C04203556EA3C
:1002D000044C4FEA144418BF641C4FF000084FF060
:1002E0000009904271EB030C39D3002919BFB1FA10
:1002F00081F701FA07F6B0FA80F700FA07F6C7F1BE
:1003000020071EBF20FA07FC46EA0C062037B6FB82
:10031000F4FCA7EB0507103F07F01F0BCBF12006FD
:100320000CFA0BFB2CFA06F644BFB3460026202F2E
:10033000A4BF5E464FF0000B5BEA060C08BF4FF00F
:10034000010B19EB0B09ABFB027C48EB0608C01B49
:1003500006FB02CC0BFB03CC71EB0C01C1E70B4697
:10036000024641464846BDE8F08B13B54FF0000009
:100370004FF00001AFF30080BDE81C4070474FF024
:10038000000200B5134694469646203922BFA0E8E5
:100390000C50A0E80C50B1F12001BFF4F7AF0907F1
:1003A00028BFA0E80C5048BF0CC05DF804EB8900E2
:1003B00028BF40F8042B08BF704748BF20F8022B25
:1003C00011F0804F18BF00F8012B7047704770473D
:1003D0007047000070B5064C7C44064D7D4403E038
:1003E000206820448047241DAC42F9D170BD000034
:1003F000D0220000D0220000754600F02BF8AE4657
:1004000005006946534620F00700854618B020B520
:10041000FFF72CFFBDE820404FF000064FF000072B
:100420004FF000084FF0000B21F00701AC46ACE89C
:10043000C009ACE8C009ACE8C009ACE8C0098D4609
:10044000704710B50446AFF300802046BDE8104069
:10045000FFF7F7BE004870474C0100200149182003
:10046000ABBEFEE7260002007047FEE7014800F041
:10047000B3B80000EC00002001681823CAB2103A9B
:10048000B2FBF3F2054B6FF30901032A9B5CC365D2
:1004900000D9091D81650846704700006A260008DA
:1004A00010B5014600208B698A6A4FF0C07453B1C1
:1004B000B3F5005F15D072B1012A0CD0022A0AD020
:1004C000032A09D104E01AB1012A06D0022A03D175
:1004D000C96AC90100D5012010BDC96AA142FAD07C
:1004E00010BD002AF7D0012AF2D0022AF3D0032A45
:1004F000F3D010BD30B50468256825F4802525604B
:10050000046863608368402B036803D099600068C7
:10051000C26030BD9A600068C16030BD704772B67D
:10052000FEE72DE9F0410446876D00F0E7FA064644
:1005300094F835000025022806D08020606584F8F4
:1005400034500120BDE8F0812068016821F01601D7
:1005500001602068416921F080014161206C08B987
:10056000A06C20B12068016821F0080101602068BA
:10057000016821F0010101600CE000F0BFFA801B6E
:10058000052807D920206065032084F8350084F809
:100590003450D7E720680068C007EED194F85C10AB
:1005A0003F208840B860012084F8350084F834503A
:1005B0000020C7E790F83510022903D0802141655B
:1005C00001207047052180F835100068016821F08E
:1005D00001010160002070472DE9F84304464FF007
:1005E0000009CDF8009063484FF41651A56D0068DE
:1005F000B0FBF1F72E6894F85C10082000FA01F1C6
:1006000031420FD021680A6852070BD50A6822F0E0
:1006100004020A6094F85C108840A860606D40F0A5
:100620000100606594F85C104FF0010808FA01F0D1
:10063000304208D021684969090604D5A860606D78
:1006400040F00200606594F85C100420884030425D
:1006500008D021680968890704D5A860606D40F05A
:100660000400606594F85C1010208840304218D077
:1006700021680968090714D5A86020680168490342
:1006800004D50068000308D5A16C07E00168C9051E
:1006900003D4016821F008010160216C09B12046F2
:1006A000884794F85C1020208840304231D021687F
:1006B0000968C9062DD5A86094F83500052820687A
:1006C000016806D0490347D5006800031DD4616C5A
:1006D0001CE021F0160101602068416921F08001D1
:1006E0004161206C08B9A06C20B12068016821F03C
:1006F0000801016094F85C103F208840A86084F8ED
:10070000358084F83490216D1FE0E16B09B12046FB
:100710008847606D00282BD0606DC00714D005207D
:1007200084F835002068016821F00101016000981B
:10073000401C0090B84203D820680068C007F6D17A
:1007400084F8358084F83490E16C002910D001B031
:100750002046BDE8F04308470168C905D5D40168C3
:1007600021F01001016084F8358084F83490CCE7E2
:10077000BDE8F883100000202DE9F041044600F0A8
:10078000BDF906465CB1022084F83500002584F8E6
:1007900034502068016821F0010101600DE0012062
:1007A000BDE8F08100F0AAF9801B052805D92020BA
:1007B0006065032084F83500F2E720680068C00710
:1007C000F0D12268116820480140D4E901031843A0
:1007D000D4E903363343184363691843A3691843C4
:1007E000E3691843236A18430843616A042903D163
:1007F000D4E90B1319430843106020684069666A06
:1008000020F0070130460E43012704280CD1A06ACE
:100810000643E06A40B12046FFF742FE20B1402087
:10082000606584F83570BAE7206846612046FFF7B6
:1008300023FE94F85C203F2191408160656584F837
:1008400035700020ACE700003F8010F02DE9F0414A
:100850000446866D90F83400002501280DD0012053
:1008600084F8340094F835700020012F07D084F804
:10087000340002252846BDE8F0810220FBE702276C
:1008800084F8357060652046FFF734FE94F85C10FC
:100890003F208840B0602068016841F01601016087
:1008A000206C20B12068016841F0080101602068D7
:1008B000016841F001010160DCE700002DE9F84F1B
:1008C000DFF8F8A10022012403254FF00F090AF1F7
:1008D000040BAAF1040E00BF0B6804FA02F63340C1
:1008E000B34270D10F7907F00307012F01D0022F17
:1008F00016D187684FEA420805FA08FC27EA0C0778
:10090000D1F80CC00CFA08FC4CEA070CC0F808C07F
:100910004768B7430E79C6F3001696403E434660DB
:100920000E79F643B6070AD0C7684FEA420C05FABB
:100930000CF6B7438E6806FA0CF63E43C6600E7995
:1009400006F00306022E10D1D60800EB8608D8F870
:10095000206057074FEAD76C09FA0CF7BE430F69BE
:1009600007FA0CF73743C8F8207006684FEA420CC4
:1009700005FA0CF7BE430F7907F0030707FA0CF7E7
:10098000374307604E6816F4403F1CD04C4E376822
:1009900047F480473760366822F0030706F4804644
:1009A0000096484E07EB060CDCF8086897073F0FE7
:1009B00009FA07F826EA0806DFF80C81404503D15A
:1009C0004FF0000841E072E0DFF80081404502D1BD
:1009D0004FF0010839E0DFF8F880404502D14FF0D0
:1009E000020832E0DFF8EC80404502D14FF0030806
:1009F0002BE0DFF8E480404502D14FF0040824E00A
:100A0000DFF8D880404502D14FF005081DE0DFF83F
:100A1000D080404502D14FF0060816E0DFF8C480D0
:100A2000404502D14FF007080FE0DFF8BC80404599
:100A300002D14FF0080808E0DFF8B080404502D14D
:100A40004FF0090801E04FF00A0808FA07F848EAF1
:100A50000608CCF80888DAF800605746D1F804C0D8
:100A60009E435FEACC2C00D51E433E60DBF800605D
:100A70005F46D1F804C09E435FEA8C2C00D51E432C
:100A80003E60DEF800607746D1F804C09E435FEA1E
:100A90008C3C00D51E433E60084F083F3E68D1F8AD
:100AA00004C09E435FEACC3C00D51E433E60521C0E
:100AB000102AFFF411AFBDE8F88F0000083C014098
:100AC000443802400030014000000240000402406F
:100AD00000080240000C02400010024000140240D6
:100AE00000180240001C0240002002400024024086
:100AF0000AB1816170470904FBE700000148806882
:100B00007047000004000020024881680278114408
:100B100081607047040000200B4810B5016841F463
:100B200000710160016841F480610160016841F475
:100B300080710160032000F06FF80F2000F006F8CC
:100B400000F024F8002010BD003C024070B50D4DAF
:100B500004464FF47A712878B1FBF0F00A4909682D
:100B6000B1FBF0F000F044FB48B9102C07D2002292
:100B70002146501E00F030F800206C6070BD01204E
:100B800070BD000004000020100000200A4808B5D5
:100B9000016841F480410160006800F480400090E9
:100BA0000548001F016841F080510160006800F0B5
:100BB0008050009008BD000044380240002809DB46
:100BC00000F01F02012191404009800000F1E02067
:100BD000C0F8001170470000F0B40E4B1B680C46C3
:100BE000C3F30223C3F10705042D00D90425191D01
:100BF000072901D2002300E0DB1E012606FA05F1D9
:100C0000491E214099409E40761E16403143F0BC5B
:100C100001F018B90CED00E0064900F00702086881
:100C20004FF6FF03184040EA0220034A10430860D1
:100C3000704700000CED00E00000FA052DE9F843D4
:100C40001748016841F0805101600068154F00F0BD
:100C50008050012600903E64FFF750FF05464FF498
:100C60007A78114C05E000BFFFF748FF401B404574
:100C70000DD86068C003F7D57E64FFF73FFF0546D7
:100C8000464607E0FFF73AFF401BB04202D9032077
:100C9000BDE8F88360688003F4D50020F8E7000021
:100CA0004038024000000E42007000402DE9F0473D
:100CB0000E46050065D0DFF81481D8F80000F7B2C1
:100CC00000F00F00B04207D288F80070D8F800009A
:100CD00000F00F00B04254D128683D4C810712D576
:100CE000400703D5206840F4E050206028780007D2
:100CF00003D5206840F4604020602068A96820F097
:100D0000F000084320602878C0072DD0304968687B
:100D10000839012812D0022813D0032811D00968FD
:100D2000890700292DDA216821F0030101432160A0
:100D3000FFF7E4FE814641F2883A0EE00968890334
:100D4000EFE709688901ECE7FFF7D8FEA0EB09019E
:100D5000514502D90320BDE8F0872068696800F09A
:100D60000C00B0EB810FEFD1D8F80010404601F035
:100D70000F01B14207D90770006800F00F00B042C0
:100D800001D00120E7E72878400705D52068E96809
:100D900020F4E050084320602878000706D520683A
:100DA000296920F4604040EAC100206000F038F872
:100DB0002168084AC1F30311515CC8400649086024
:100DC00006480068FFF7C2FE0020C4E7003C02406E
:100DD0000838024072260008100000200800002099
:100DE0000448054900680968044AC1F38221515C3E
:100DF000C8407047100000200838024082260008D2
:100E00000448054900680968044AC1F34231515C4D
:100E1000C8407047100000200838024082260008B1
:100E2000154810B5006810F00C02144813D014498E
:100E3000042A0FD0082A0ED10F4C241F22682368E1
:100E400002F03F025B0207D52068C0F38810A0FBC8
:100E5000010106E0084610BD2168C1F38811A1FB1D
:100E600000010023FFF714FA2168C1F30141491C76
:100E70004900B0FBF1F010BD083802400024F40036
:100E8000001BB7002DE9F84F04006ED02078DFF882
:100E90004C93C007A9F104054AD009F10400016888
:100EA000C1F38101012908D00068C0F38100022844
:100EB0000AD1D9F80000400206D52868800337D54A
:100EC00060680028E1D033E06068B0F5803F10D062
:100ED000B0F5A02F286810D020F480302860286852
:100EE00020F4802028606068A8B1FFF707FE06465E
:100EF0000DE0286840F48030F4E740F4802028605A
:100F0000F7E700BFFFF7FAFD801B642873D8286855
:100F10008003F7D50CE0FFF7F1FD064605E000BFC2
:100F2000FFF7ECFD801B6428F0D828688003F7D415
:100F30002078DFF8AC8280074FF0000A3ED5A74842
:100F4000001D016811F00C0F08D00068C0F381008B
:100F500002280BD1D9F80000400207D42868800786
:100F600016D5E068012800D112E033E1E068B8B19D
:100F70000120C8F80000FFF7C1FD064605E000BFEC
:100F8000FFF7BCFD801B0228C0D828688007F7D572
:100F90002868216920F0F80040EAC10028600DE0CF
:100FA000C8F800A0FFF7AAFD064604E0FFF7A6FD7B
:100FB000801B02281FD828688007F7D420780007F4
:100FC00022D5864F87486169703771B10121016070
:100FD000FFF794FD064604E0FFF790FD801B022812
:100FE00009D838688007F7D50EE0C0F800A0FFF7F1
:100FF00085FD064605E082E0FFF780FD801B0228A4
:101000007DD838688007F7D42078400768D5DFF8A6
:10101000CCB100270BF13C0BDBF80000C0000BD477
:10102000DBF8001041F08051CBF80010DBF8000035
:10103000012700F0805000906B4E3068C00510D43E
:10104000306840F480703060FFF758FD009005E094
:10105000FFF754FD0099401A022850D83068C005A7
:10106000F6D55E4EA0686C3601280FD00528306892
:1010700010D020F001003060306820F004003060B3
:10108000A068B8B1FFF73AFD00900FE0306840F07B
:101090000100F4E740F004003060F7E7FFF72EFDB1
:1010A0000099411A41F28830814266D83068800741
:1010B000F4D50EE0FFF722FD009007E0FFF71EFDDC
:1010C0000099411A41F28830814256D83068800731
:1010D000F4D42FB1DBF8001021F08051CBF80010D0
:1010E000A069C8B33D49091D0968C1F381010229FE
:1010F0004AD00228504607D0C8F8600000E03CE023
:10110000FFF7FCFC04463BE04746C8F86000FFF7E9
:10111000F5FC064605E000BFFFF7F0FC801B022847
:101120002BD828688001F7D4D4E907010843A16AC5
:101130002E4A490802EB0141626A41EA82110843E2
:1011400094F82C1040EA0161C9F8001001203866BB
:10115000FFF7D4FC044606E03EE000BFFFF7CEFCFC
:10116000001B022809D828688001F7D534E000BFA9
:10117000FFF7C4FC001B022802D90320BDE8F88F4A
:1011800028688001F4D427E00128F7D0D9F80000BE
:10119000E26900F4800191421CD1226A00F03F0113
:1011A000914217D147F6C071626A0140B1EB821FCC
:1011B00010D1A26A4FF0FF3300F4403103EB52022A
:1011C000B1EB024F06D194F82C1000F07060B0EB38
:1011D000016F01D00120D1E70020CFE704380240A1
:1011E00000004742800E4742007000400000FFFFB1
:1011F00010B5401EB0F1807F01D3012010BD4FF02B
:10120000E02460610F21601700F01CFE0020A06147
:1012100007202061002010BD70477047F8B50168B5
:1012200004460868CA684B6910F00F0F4FF00005BC
:1012300059D003F0010602F49077374365D0C10717
:1012400005D0D10503D5616C41F00101616441070E
:1012500005D5D90703D0616C41F0020161648107B3
:1012600005D5D90703D0616C41F004016164010721
:1012700007D502F02001314303D0616C41F0080131
:101280006164616C00293AD0800604D5900602D5CD
:10129000204600F04BFB20684069616CC0F3801071
:1012A000090700D460B3204600F00BFB20684069BA
:1012B000400621D52068143050E8001F21F040017D
:1012C00040E80012002AF5D1E06BA8B16E49016533
:1012D000E06BFFF76FF9002811D0E06B016D01B0F2
:1012E000BDE8F040084783060FD593060DD520468C
:1012F000BDE8F84000F01ABB2046FFF78EFFF8BDAE
:101300002046FFF78AFF6564F8BD266B2023012E77
:101310007DD1C6067BD5D60679D508684868009089
:1013200048694FF00206400641D5E16B0868406805
:101330000004000CE8D0A28D8242E5D9E085C8699E
:10134000B0F5807F2DD020680C3050E8001F21F4CC
:10135000807140E80012002AF5D12068143050E86E
:10136000001F21F0010140E80012002AF5D1206899
:10137000143050E8001F21F0400140E80012002A1C
:10138000F5D184F84230256320680C3050E8001F06
:1013900021F0100140E80012002AF5D1E06BFFF7C0
:1013A000C0F86663A08DE18D401A81B22AE0A08D5D
:1013B000E18D401A81B2E08D0028A5D00029A3D08C
:1013C00022680C3252E8000F20F4907042E80007C7
:1013D000002FF5D12068143050E8002F22F00102D0
:1013E00040E80027002FF5D184F8423025632068BB
:1013F0000C3050E8002F22F0100240E80023002BB0
:10140000F5D166632046FFF707FFF8BDFFE7050645
:101410002BD5150629D594F841002128F5D1A068CF
:10142000B0F5805F01D12069B0B1206A411C216212
:10143000216800784860E08C401E0004000CE084C5
:10144000E3D12068C16821F08001C1602068C168D3
:1014500041F04001C160D8E7206A0088C0F308006D
:101460004860206A801C2062E5E74006CDD5500622
:10147000CBD5CA68204622F04002CA6084F84130C9
:1014800000F0D7F8C1E70000C517000870B50400E8
:1014900004D094F84100002510B106E0012070BD91
:1014A00084F84050204600F023F8242084F84100BE
:1014B0002068C16821F40051C160204600F098FA0C
:1014C0002068016921F4904101612068416921F09F
:1014D0002A0141612068C16841F40051C16065641E
:1014E000202084F8410084F842006563002070BD2C
:1014F000F0B587B0064614216846FEF740FF334931
:10150000314F346800253148143902220323BC428C
:101510003AD1046844F010040460006800F0100040
:101520000590086840F0020008600868694600F00D
:1015300002000590C0208DE825000720CDE903308A
:101540002348FFF7BBF9244C224820604FF000608D
:10155000C4E901054014C4E903506561A561E56172
:10156000256220466562FFF707F908B1FEF7D7FF4D
:10157000F463002211462520A663FFF72DFB2520EA
:10158000FFF71CFB07B0F0BD144EB442FAD104685B
:1015900044F020040460006800F020000590086812
:1015A00040F0400008600868694600F0400005907F
:1015B0004FF484408DE825000820CDE90330084829
:1015C000FFF77CF9DEE700000010014044380240DC
:1015D0000004024040640240EC000020001401407E
:1015E0000018024090F84230202B01D002207047B2
:1015F00021B11AB10023036300F080BA01207047C3
:10160000084910B588420BD107480168491C0160A0
:10161000064800F077FBBDE81040044800F082BBAC
:1016200010BD00005C00002000000020140000201D
:1016300070477047FEE70000094808B5016841F4AB
:10164000800101600068002200F4800000901146D3
:101650003A20FFF7C1FABDE808403A20FFF7AEBADA
:10166000303802402DE9F04186B014216846FEF77B
:1016700086FE2B480024016841F0400101600168AA
:1016800001F040010591016841F00101016001682C
:1016900001F001010591016841F00201016001685A
:1016A00001F002010591016841F0800101600168CB
:1016B00001F080010591016841F0100101600168AD
:1016C00001F010010591016841F0200101600068FE
:1016D000144F00F020004FF40065059000222946C9
:1016E0003846FFF705FADFF84080EE000022314669
:1016F0004046FFF7FDF900950125CDE90154694603
:1017000038460394FFF7DAF80096CDE901546946AC
:1017100040460394FFF7D2F806B0BDE8F081000020
:101720003038024000100240001402400E4810B54C
:101730000C4901600D4941604FF4805181600021E6
:101740004FF48062C0E903120C22C0E90521C16197
:10175000FFF79CFE002803D0BDE81040FEF7DFBE77
:1017600010BD0000001001405C000020A0860100B8
:101770000C4810B50A4901604FF4E1314160002185
:1017800081600C22C160C0E904128161C161FFF770
:101790007DFE002803D0BDE81040FEF7C0BE10BD9E
:1017A00000140140A4000020FEE7FEE770477047E8
:1017B000FFF7AAB90248016841F47001016070475F
:1017C00088ED00E010B5806B0021C185C184FFF772
:1017D00024FD10BD70B5846B2068406994F84110F9
:1017E000C0F3C0100025212904D118B1E58420469A
:1017F00000F08EF82068406994F84210C0F3801021
:10180000222904D118B1E585204600F05AF8606C11
:1018100040F0100060642046FFF7FFFC70BD10B57B
:101820000146806B096809684FF00002C9052ED493
:10183000C28501680C3151E8003F23F4807341E810
:101840000034002CF5D10168143151E8003F23F039
:10185000010341E80034002CF5D10168143151E84E
:10186000003F23F0400341E80034002CF5D1202153
:1018700080F84210016B012909D101680C3151E84F
:10188000003F23F0100341E80034002CF5D14263FF
:10189000016B012902D0FFF7B3FE10BD818DFFF768
:1018A000BBFC10BD10B5806B01214163016B0129A8
:1018B00002D0FFF7BDFE10BD818D4908FFF7ACFCDB
:1018C00010BD01680C3151E8002F22F4907241E8FC
:1018D0000023002BF5D10168143151E8002F22F0CC
:1018E000010241E80023002BF5D1016B012909D148
:1018F00001680C3151E8002F22F0100241E800236A
:10190000002BF5D1202180F842100021016370479F
:1019100001680C3151E8002F22F0C00241E8002399
:10192000002BF5D1202180F84110704708B590F8C0
:101930004210222901D0022008BD82684FF4805352
:101940009A4201D1016921B1816A9A421BD04AB100
:101950000AE00268816A5268C2F308020A80816A5A
:10196000891C08E0026972B10268526802F07F02C5
:101970000A70816A491C8162C18D491E0904090CE3
:10198000C18503D01BE002685268F1E70168CA68AC
:1019900022F02002CA600168CA6822F48072CA601C
:1019A00001684A6922F001024A61202180F8421050
:1019B00000214163026B012A03D0FFF721FE0020C2
:1019C00008BD016301680C3151E8002F22F01002BC
:1019D00041E80023002BF5D101680A68D20602D540
:1019E0000A6849680091818DFFF716FCE7E700005F
:1019F00070B5044600680169E26821F44051114362
:101A000001612169A068E2690843616911430843E3
:101A10002168CA6849F20C639A430243CA6020688D
:101A20004169A26921F44071114341613149206843
:101A3000884202D03049884202D1FFF7E1F901E043
:101A4000FFF7CEF9E2690023192164253226B2F5A9
:101A5000004F626828D0A0FB0101930F9200FEF7AF
:101A600017FC0146B0FBF5F06FF01802504301EB94
:101A7000800006EB0010B0FBF5F000F0F002B1FBC7
:101A8000F5F002EB0012B1FBF5F06FF018035843CC
:101A900001EB800006EB0010B0FBF5F000F00F004A
:101AA00021681044886070BDA0FB010192185B4161
:101AB000FEF7EEFB0146B0FBF5F00201B1FBF5F0DD
:101AC0006FF01803584301EB800006EBC000B0FB39
:101AD000F5F000F0F80002EB4002B1FBF5F05843DE
:101AE00001EB800006EBC000B0FBF5F000F0070052
:101AF000D6E70000001001400014014038B58162B3
:101B000004468285002013466064222284F8422025
:101B1000E56B1B4AEA63E56B1A4A2A64E56B1A4ACD
:101B2000EA64E26B10650A462168E06B091DFEF766
:101B30008DFE2068016840680090206948B12068E7
:101B40000C3050E8001F41F4807140E80012002A78
:101B5000F5D12068143050E8001F41F0010140E841
:101B60000012002AF5D12068143050E8001F41F01F
:101B7000400140E80012002AF5D1002038BD0000E5
:101B80001F180008A5180008D51700080148FFF71E
:101B900045BB00005C000020FEE7000000EE100ADC
:101BA000B7EE002AFFEE001A9FED031ADFED030ADD
:101BB000B8EEC00A00F004B800FEFF46000000C7FF
:101BC00010B52DED088BB0EE618AB0EE42BAB0EEE2
:101BD00041AAF0EE608AF0EE40BA18EE100A00F06A
:101BE000C9FC7AEE680A41EC190B10EE900A00F07D
:101BF000C1FC3BEEE80A7BEE480A41EC1A0B20EEF2
:101C0000200A10EE100A00F0B5FC53EC1A2B00F07D
:101C10001BFA53EC192B00F06FF900F03BF9BDEC07
:101C2000088B00EE100A10BDB7EE002AFFEE001A76
:101C30009FED021ADFED020AFFF7C2BF0080D24417
:101C40000000B64330B593B030216846FEF797FBED
:101C500014210CA8FEF793FB20480025016841F0F1
:101C600080510160006800F0805011901C480168AC
:101C700021F4404141F4804101600068022400F4F5
:101C80004040119001200090000401908001CDE9B6
:101C900006400C200890B420CDE9090404200B90E4
:101CA0006846FFF7EFF808B172B6FEE7FEF7C6FF29
:101CB00008B172B6FEE70CA90F2081E831004FF49D
:101CC0008050CDE90F0502210CA8FEF7EFFF002898
:101CD00001D072B6FEE713B030BD000040380240BC
:101CE0000070004030B5064B00211A684418491CAA
:101CF00014F8235F521CA5741229F7DB1A6030BD5B
:101D00000000002010B500F1230112220348FFF764
:101D100069FC03480168491C016010BD5C0000209B
:101D20000000002010B50446FFF7DCFFB4F83500D2
:101D30001C34C0F30A0000EE100AB8EE400AFFF7A8
:101D400073FF04ED070AA07EE17EC00840EA41105F
:101D5000C0F30A0000EE100AB8EE400AFFF764FF75
:101D600004ED060AE07E217F800940EA8100617F60
:101D700040EA8120C0F30A0000EE100AB8EE400AE3
:101D8000FFF752FF04ED050A607FA17F400840EA9B
:101D9000C110C0F30A0000EE100AB8EE400AFFF7C7
:101DA00043FF04ED040AA07FC0F3011104F80C1CEA
:101DB000800904F80B0CB4F91F00FFF7EFFE04EDE7
:101DC000020AB4F92100FFF7E9FE04ED010AB4F9B3
:101DD0002300FFF7E3FE84ED000A94F8250000F0ED
:101DE0000100207194F8260000F00100607194F861
:101DF0002700A07110BD000000210A464318491CAD
:101E000003F8232F12299A74F8DB02219FED0C0AA4
:101E100080ED030A80ED020A80ED010A80ED000AE0
:101E20000174417480ED050A80ED060A80ED070A11
:101E300080F8202080F8212080F8221070470000D0
:101E4000000000000907090E002804DB00F1E02073
:101E500080F80014704700F00F0000F1E02080F8D7
:101E6000141D70470148FFF7C7BF00001400002091
:101E7000FEF752FEFFF7E6FEFFF7F4FBFFF7DCFB91
:101E8000FFF754FCFFF774FC0148FFF73BFFFEE748
:101E90001400002021F00042A2F16052B2F5801F30
:101EA00001F0004328BFD2F17F6C0BD95FEA001C20
:101EB00043EAC20242EB507018BF704728BF20F0BF
:101EC00001007047B2F5801FBCBF184670474FEA4B
:101ED000410C1CF5001F02D2084600F0C1BB70B5D2
:101EE00000F00AFA00000089FFF7F6BF4FF000404B
:101EF000A0F580007047000010B591EA030F48BFBD
:101F000083F0004300F15482841A71EB030C05D274
:101F1000121943EB0C03001B61EB0C01DFF824E109
:101F20004FEA1154A4EB135C1EEA430F18BF9EEA5C
:101F3000445F73D023EA0E03DCF1200E21EA045142
:101F400043F4801332D322FA0CFE10EB0E0023FA76
:101F50000CFE41EB0E01CCF1200E03FA0EFE10EB4D
:101F60000E0051F10001B1F5801FCCF1200E32D2EC
:101F700001EB045112FA0EF2BDE8104058BF704751
:101F8000401C38BF5FEA420218BF7047002814BFE8
:101F900020F0010041F100014FEA410313F5001F59
:101FA00038BF7047A1F1C04100F0F4B9012A43EBFA
:101FB0000302ACF1200CDCF11F0E32BF4FF0000E1B
:101FC00023FA0CF310EB030041EB0451B4EB115F67
:101FD000D0D0A1EB045101F5801149085FEA30002F
:101FE00001EB04510ED350F1000038BF12FA0EFE7F
:101FF00008D1BDE81040C9E7401C38BF5FEA420283
:10200000CAD1C3E7BDE810404FEA410313F5001FF2
:1020100038BF7047A1F1C04100F0BCB99EEA445FEF
:1020200008D011EA5E0FBDE8104004BF01F0004186
:1020300000207047BDE8104070B500F05DF900BFAA
:1020400064FBBE3E0000E0FF2DE9C04130B4DFF884
:10205000A0C23CEA111418BF3CEA131400F0EC8053
:1020600081EA03051CEA111444EAD57418BF1CEA7E
:10207000131500F0C780A4EB05044FF0004545EAB6
:10208000C12145EAC32341EA505143EA525304F1C6
:102090007F74994204F500344FEAC0204FEAC2220F
:1020A00008BF904200F09C804FEA13650FF2401683
:1020B000765D4FEA134506FB05F7C7F1807706FB0F
:1020C00007F74FEAD737A7FB03687642C8F5803891
:1020D000A7FB06CE38BFA8F1010807FB08E64FF0C2
:1020E000000EA6FB028CE6FB03CEDCF1000CCEF169
:1020F000004E38BFAEF1010EA6FB0C584FF00007A2
:102100004FF00005E6FB0E87A1FB08C6A0FB07CE3B
:1021100016EB0E0645F10005E1FB076515F1E04EF3
:102120007EBFA4F580345FEA46066D4116F1800754
:1021300045F100054FEA17274FEA066647EA0567AB
:10214000A6F1DE46B6F1805F4FEA15251FD9384665
:1021500024F0010C05EBC471BCF1FE6F01EB0C1116
:1021600002D8F0BCBDE8008124425CBF01F5801EAE
:102170009EEAC47F02D4F0BCBDE80081244238D47A
:10218000F0BCA1F1C041BDE8004100F003B94FEA45
:10219000D22242EA43524FEAD323A7FB02864FEAF8
:1021A000D02040EA415007FB03661EEA0E0F4FEABB
:1021B000D12105FB026658BFA6EB0056B6EB0056D0
:1021C0004FEA520E4EEAC37E18EB0E0E56EB530E3C
:1021D000BDD518EB02085E417F1C55F10005B6E73E
:1021E0004FF480154FF000074FF000064FF0000845
:1021F000ADE7F0BC4FF0000001F1C04101F000413B
:10220000BDE8008111EA0C1F0CEA131500D00CE0A8
:1022100013EA0C1F00F025804FF00000F0BC81EAAB
:10222000030101F00041BDE80081F0BCBDE80041C0
:1022300081EA030100F0AEB8F0BCBDE8004170B522
:1022400000F05AF8097EFC3E00F007B881EA03016D
:102250004FF0000001F00041704781EA030100F0F7
:1022600099B8F0BCBDE800414FF00000214970472B
:10227000FFFDFBF9F7F5F4F2F0EEEDEBE9E8E6E44B
:10228000E3E1E0DEDDDBDAD8D7D5D4D3D1D0CFCDD2
:10229000CCCBCAC8C7C6C5C4C2C1C0BFBEBDBCBB0B
:1022A000BAB9B8B7B6B5B4B3B2B1B0AFAEADACAB06
:1022B000AAA9A8A8A7A6A5A4A3A3A2A1A09F9F9EE0
:1022C0009D9C9C9B9A999998979796959594939392
:1022D000929191908F8F8E8E8D8C8C8B8B8A898929
:1022E00088888787868585848483838282818180AC
:1022F0000000FF070000F87F0EF1020E2EF0030E23
:102300005EF8046B364205D4012A43EB030515F54C
:10231000001F12D8012841EB010C1CF5001F0CD83E
:102320000ED14FEAD17C15F5001F0CEB4C0C0CF1D3
:10233000020C08BF4CEBD37C04E04FF0080C01E02A
:102340004FEAD37C0CEB4C0526FA05F606F007069F
:10235000B6F1040C06D20EEB860CBDE870404CF0D2
:10236000010C6047DFE80CF0090B02024FF000415E
:102370004FF00000A1F5002170BD1946104601285C
:1023800051EB010418BFD4F5001484BF002001F004
:10239000004170BD0808A0F500114FEA31017047F7
:1023A00010B591EA030F48BF83F000433FF5ACAD91
:1023B000841A71EB030C07D212198CF0004C43EB1A
:1023C0000C03001B61EB0C01DFF8A4E14FEA115490
:1023D000A4EB135C1EEA430F18BF9EEA445F00F0B3
:1023E000B08023EA6E03524221EA0451C3EB6E032C
:1023F00038BF5B1EDCF1200E25D322FA0CFE10EB59
:102400000E0043FA0CFE41EB0E01CCF1200E03FA54
:102410000EFE10EB0E0051F10001CCF1200E29D47C
:1024200012FA0EF201EB0451BDE8104058BF70479C
:10243000401C1CBFB2F1004F704700280CBF491C64
:1024400020F00100704712EB020E43EB030218BFAD
:102450004FF0010E4EEA4202ACF1200CDCF11E0EF0
:1024600054D943FA0CFE10EB0E0051F1FF31CCF1C0
:102470001E0ED5D50EF1010E12FA0EFE404141EBB3
:10248000010101EB445C5FEA5C5C10D910EBDE708B
:1024900001EB045138BFBEF1004FBDE8104018BF3A
:1024A000704700280CBF491C20F00100704730D253
:1024B0004FEAD42C11F5001124F400641BD0B1FABA
:1024C00081F20B3AA41AA41ED2F12003914030FAF3
:1024D00003F31943904001EBCC71002C01EB045144
:1024E000BDE81040A8BF704701F1C0414FF00000A7
:1024F00001F000417047B0FA80F310FA03F100D107
:1025000010BDE41A173C4805C90AE4E701EB045181
:1025100010BD491001EB0451BDE810404FEA3000F6
:1025200002E04FF0000170474A0008BF0042F8D0B7
:10253000B2F5001F28BF704701F000414FF00000C6
:1025400070479EEA445F07D011EA5E0FBDE8104075
:1025500004BF002100207047BDE8104070B5FFF7B0
:10256000CBFE00BF40DFF63E83F0004110467047CF
:102570000000E0FF43004FEAD30C4FEA3C0C43401D
:102580001FBF40070CF1605113F0FE4F70471CF065
:10259000006F03D100200CF0004170470CF00043A5
:1025A00043EA507010B540EACC0000F00EF800BFCE
:1025B000000000924FEA0001FFF7ECBE4FF000412F
:1025C0004FF00000A1F5002170470EF1020E2EF031
:1025D000030E5EF8044B244204D44FEA4102B2F1E8
:1025E0007F4F11D84FEA4003B3F17F4F0CD80ED183
:1025F0004FEAD07CB2F17F4F0CEB4C0C0CF1020C8B
:1026000008BF4CEBD17C04E04FF0080C01E04FEA2E
:10261000D17C0CEB4C0324FA03F404F00704B4F16E
:10262000040C06D20EEB840CBDE810404CF0010CFB
:102630006047DFE80CF0070802024FF00040A0F509
:10264000800010BD0846420018BFD2F1807288BFDA
:1026500000F0004010BD4FF04070E1EE100A7047EE
:10266000FF2141EAD050C005704700061016000651
:10267000101600000000000000000102030406071D
:10268000080900000000010203040000B026000851
:102690000000002014000000E8010008C426000823
:1026A000140000209C07000004020008B9F7FFFF97
:1026B0000000000001000000100000000000000009
:0426C0000024F400FE
:04000005080001AD41
:00000001FF
